:020000040800F2
:10000000F00F00209D010008A5010008A7010008CD
:10001000A9010008AB010008AD01000800000000C4
:10002000000000000000000000000000AF01000818
:10003000B101000800000000B3010008B50100088C
:10004000B7010008B7010008B7010008B7010008B0
:10005000B7010008B7010008B7010008B7010008A0
:10006000B7010008B701000825210008B701000802
:10007000B7010008B7010008B7010008B701000880
:10008000B7010008B7010008B7010008B701000870
:10009000B7010008B7010008B7010008B701000860
:1000A000D93600085D370008B7010008B70100081D
:1000B000B7010008B7010008B7010008B701000840
:1000C000B7010008B7010008B7010008B701000830
:1000D000B7010008E13D00083D3E0008B7010008F7
:1000E000B7010008B7010008B7010008B701000810
:1000F000B7010008B7010008B7010008B701000800
:10010000B7010008B7010008B7010008B7010008EF
:10011000D13D0008B701000889370008B53700084D
:10012000B7010008B7010008B7010008B7010008CF
:10013000B7010008B7010008B7010008B7010008BF
:10014000B7010008B7010008B7010008B7010008AF
:10015000B7010008B7010008B7010008693F0008AF
:10016000B7010008B7010008B7010008B70100088F
:10017000B7010008B7010008B7010008B70100087F
:10018000B7010008B7010008DFF80CD000F090F9C3
:1001900000480047F9470008F00F00200648804754
:1001A00006480047FEE7FEE7FEE7FEE7FEE7FEE75C
:1001B000FEE7FEE7FEE7FEE7DD35000889010008FF
:1001C00040EA01039B0703D009E008C9121F08C0D9
:1001D000042AFAD203E011F8013B00F8013B521E59
:1001E000F9D27047D2B201E000F8012B491EFBD2D0
:1001F00070470022F6E710B513460A460446194632
:10020000FFF7F0FF204610BD2DE9F04D81EA030411
:1002100004F0004B21F0004514464FF0000A23F093
:10022000004150EA050220D054EA01021DD0C5F376
:100230000A570246C5F31303C1F31300C1F30A566C
:1002400040F4801543F48013A7EB0608101BD64634
:1002500008F2FD3873EB050002D308F1010801E054
:1002600092185B41B8F1000F03DA00200146BDE8A7
:10027000F08D00204FF48011064684460EE0171BD7
:1002800073EB050705D3121B63EB050306434CEA2A
:10029000010C49084FEA300092185B4150EA01070F
:1002A000EDD152EA030012D082EA040083EA05018C
:1002B000084305D0101BAB4106D20122002306E003
:1002C00000224FF0004302E06FF0010253101AEBDE
:1002D00006004CEB085110EB0A0041EB0B01BDE8A6
:1002E000F04D00F087B80EB5C10F80EAE070084409
:1002F000CA07002140F233438DE80E000A460B4640
:1003000000F087F803B000BD00F0004230F000407C
:100310000AD0C10D01F56071C0F3160042EA015127
:10032000C20840071143704700200146704701F0A2
:10033000004330B421F0004150EA010206D00A0D1A
:10034000A2F56072C1F31301002A02DC30BC002068
:100350007047440F44EAC104C100E01830BC00EB10
:10036000C25000F010B8202A04DB203A21FA02F033
:100370000021704721FA02F3D040C2F120029140DF
:100380000843194670470029A8BF7047401C490020
:1003900008BF20F00100704710B4B0FA80FC00FAEA
:1003A0000CF050EA010404BF10BC704749B1CCF115
:1003B000200421FA04F411FA0CF118BF01212143A1
:1003C0000843A3EB0C01CB1D4FEA00614FEA10205C
:1003D00042BF002010BC704700EBC35010440029FE
:1003E000A4BF10BC7047401C490008BF20F00100AA
:1003F00010BC704710B5141E73F1000408DA401CDD
:1004000041F1000192185B411A4301D120F0010033
:1004100010BD2DE9F04D92469B4611B1B1FA81F223
:1004200002E0B0FA80F22032904600F053F8044621
:100430000F4640EA0A0041EA0B0153465A46084378
:1004400013D0114653EA010019D0C8F140025046BA
:10045000FFF789FF05460E4650465946424600F0D2
:1004600039F8084305D0012004E020463946BDE8AC
:10047000F08D0020054346EAE0762C4337430A9886
:100480006305E40AA0EB08000022FD0A44EA475491
:100490000A3002D500200146E9E70105101969413B
:1004A000DDE9084500196941BDE8F04DA2E700000B
:1004B000064C074D06E0E06840F0010394E80700B1
:1004C00098471034AC42F6D3FFF762FED04B0008D9
:1004D000F04B0008202A04DB203A00FA02F1002049
:1004E00070479140C2F1200320FA03F31943904072
:1004F000704770B58D1810F8014B14F0030201D14C
:1005000010F8012B231106D110F8013B03E010F87D
:10051000016B01F8016B521EF9D1ABB110F8012B40
:1005200004F00C048A1A0C2C03D0A2EB84129B1C3E
:1005300008E010F8014BA2EB0422F8E712F8014B97
:1005400001F8014B5B1EF9D5A942D4D3002070BD40
:10055000CA430260704721B1826842F001028260A2
:1005600003E0826822F00102826070470021084A9D
:100570001168084A1140D0E900231A4383681A43DE
:10058000C3681A431143044AC2F8041370470000B9
:1005900004230140E030FCFF0020014000B58DB095
:1005A0000121084602F0CEFC0121080202F0FAFC0B
:1005B0004020019003208DF8080000208DF80B00EA
:1005C00001A9174801F0EBFE00200390049006906B
:1005D000059003A8FFF7CAFF0121080202F0F2FC10
:1005E00000214FF4807002F0EDFC00208DF8200017
:1005F00007908DF8210009900B9001208DF83000B4
:1006000007A9084800F01EF80623012219460548EC
:1006100000F042F801210348FFF79DFF0DB000BD37
:1006200000000240002001400146C86C80B27047C3
:100630000246002013680B400BB1012000E00020AF
:100640007047000030B50246002000235068104C6F
:1006500020400D790C6844EA0524204350609068DE
:100660000C4C2040D1E903542C438D682C434D7928
:1006700044EA450420439060D06A20F470000C7D69
:10068000641EE4B2234340EA0350D06230BD000050
:10069000FFFEFFFCFDF7FFC0F0B504460D4600204D
:1006A0000021092D11DDE068A5F10A0606EB4607D9
:1006B000072606FA07F18843A5F10A0606EB460667
:1006C00003FA06F10843E0600CE0206905EB4507FA
:1006D000072606FA07F1884305EB450603FA06F1FB
:1006E00008432061072A0FDA606B561E06EB860767
:1006F0001F2606FA07F18843561E06EB860605FA02
:1007000006F10843606322E00D2A0FDA206BD61F42
:1007100006EB86071F2606FA07F18843D61F06EB6D
:10072000860605FA06F10843206310E0E06AA2F1AC
:100730000D0606EB86071F2606FA07F18843A2F18D
:100740000D0606EB860605FA06F10843E062F0BDE9
:10075000816841F0804181607047000010B500F071
:1007600009F8012002F0D8FE00200149086010BD00
:10077000BC0243421CB50121422002F0E3FB4020B1
:10078000009001208DF8040000208DF80600032061
:100790008DF8050069460A4801F001FE4FF400405B
:1007A000009001208DF8040000208DF80600032041
:1007B0008DF805006946024801F0F1FD1CBD0000FE
:1007C0000004024010B502F05FFD012008490860F6
:1007D000022003F0D9FF0748D0F81C02C4B2002061
:1007E00003490860022003F0CFFF204610BD00003F
:1007F000988240420080404270B5002402F044FDDF
:10080000012010490860002517E06006040E012051
:100810000C49091F0860022003F0B6FF0A48D0F80F
:100820001C0208B1601CC4B200200649091F086000
:10083000022003F0A9FF681CC5B2082DE5DB2046A5
:1008400070BD00009C8240420080404210B50446CA
:1008500002F02AFD1CB101200A49086002E00020D4
:100860000849086001200749091F0860022003F0B9
:100870008BFF00200449C1F89802022003F084FF96
:1008800010BD00009C8240420080404270B504468A
:1008900002F00AFD00251BE004F080061EB10120D5
:1008A0000E49086002E000200C4908606006040E52
:1008B00001200A49091F0860022003F065FF00209B
:1008C0000749C1F89802022003F05EFF681CC5B218
:1008D000082DE1DBFFF776FF70BD00009C824042EF
:1008E0000080404210B502F0DFFC01200949086099
:1008F0000949C1F89802042003F046FF0020054989
:100900000860042003F040FF00200349C1F898026A
:1009100010BD00009C8240420080404210B502F0B1
:10092000C3FC00200749086001200749C1F898026C
:10093000042003F029FF012002490860042003F08D
:1009400023FF10BD9C8240420080404210B503F05E
:10095000B3FA10BD10B504460B48844209D10121F9
:10096000480602F00FFB00214FF0007002F00AFB76
:1009700008E00121880602F005FB00214FF08060AD
:1009800002F000FB10BD00000064004010B5002123
:10099000837A012202FA03F13D4A126842F0010211
:1009A0003B4B1A603A4A1C3212688A43384B1C335C
:1009B0001A60027BCAB9364A0C3212688A43344B39
:1009C0000C331A604288C38842EA0343304A4032FB
:1009D000847A42F834300288838842EA03432C4AFE
:1009E0004032847A02EBC4025360027B012A19D19F
:1009F000274A0C3212680A43254B0C331A6042888E
:100A0000038842EA0343224A4032847A42F834306F
:100A1000C288838842EA03431D4A4032847A02EB4B
:100A2000C4025360C27A3AB9194A121D12688A4345
:100A3000174B1B1D1A6006E0154A121D12680A4367
:100A4000134B1B1D1A60028932B9114A1432126805
:100A50008A430F4B14331A600289012A06D10C4ACB
:100A6000143212680A430A4B14331A60427B012A7B
:100A700006D1074A1C3212680A43054B1C331A6020
:100A8000034A126822F00102014B1A6010BD0000F7
:100A9000006600401AB143690B43436102E04369B9
:100AA0008B434361704730B5024600200023146831
:100AB00024F002041460146844F00104146000E09F
:100AC0005B1C546804F001041CB94FF6FF74A34288
:100AD000F6D1546804F001040CB900206CE08C7964
:100AE000012C04D1146844F08004146003E01468FD
:100AF00024F080041460CC79012C04D1146844F0F3
:100B00004004146003E0146824F0400414600C7A7C
:100B1000012C04D1146844F02004146003E014682C
:100B200024F0200414604C7A012C04D1146844F0A1
:100B30001004146003E0146824F0100414608C7A2C
:100B4000012C04D1146844F00804146003E0146814
:100B500024F008041460CC7A012C04D1146844F009
:100B60000404146003E0146824F0040414608C7816
:100B7000A407CD7844EA05640D7944EA05444D792B
:100B800044EA05540D886D1E2C43D461146824F08A
:100B900001041460002300E05B1C546804F00104AD
:100BA0001CB14FF6FF74A342F6D1546804F001045F
:100BB0000CB1002000E0012030BD0246002019B930
:100BC000D36803F0030006E0012903D1136903F0A1
:100BD000030000E00020704710B500F5D87303EB68
:100BE00001131B6803F004031372137A53B900F561
:100BF000D87303EB01131B6840F2FF7404EA5353EC
:100C0000136009E000F5D87303EB01131B686FF064
:100C1000604404EAD303536000F5D87303EB011377
:100C20001B6803F00203537200F5D87303EB011342
:100C30005B6803F00F03937200F5D87303EB0113A5
:100C40005B681B0AD37400F5D87303EB01139B6830
:100C5000D37200F5D87303EB01139B681C0A14735D
:100C600000F5D87303EB01139B681C0C547300F55B
:100C7000D87303EB01139B681B0E937300F5D873B5
:100C800003EB0113DB68D37300F5D87303EB011397
:100C9000DB681C0A147400F5D87303EB0113DB68DE
:100CA0001C0C547400F5D87303EB0113DB681B0EA6
:100CB000937421B9C36843F02003C36003E0036960
:100CC00043F02003036110BD10B502460020936875
:100CD00003F08063B3F1806F00D110E0936803F0FC
:100CE0000063B3F1006F01D1012008E0936803F0C5
:100CF0008053B3F1805F01D1022000E0042004287A
:100D000074D002F5C07303EB00131B6803F00104F9
:100D100002F5C07303EB00131C600B7A7BB94B7AAE
:100D20000C8843EA445302F5C07404EB00142468B1
:100D3000234302F5C07404EB0014236010E00B7A27
:100D40004C6843EAC4034C7A234302F5C07404EBB5
:100D500000142468234302F5C07404EB00142360DC
:100D60008B7A03F00F038B7202F5C07303EB001351
:100D70005B6823F00F0402F5C07303EB00135C60A3
:100D800002F5C07303EB00135B688C7A234302F512
:100D9000C07404EB001463608B7B1C064B7B44EA3D
:100DA00003440B7B44EA0323CC7A234302F5C0744B
:100DB00004EB0014A3608B7C1C064B7C44EA0344C8
:100DC0000B7C44EA0323CC7B234302F5C07404EB81
:100DD0000014E36002F5C07303EB00131B6843F0DB
:100DE000010402F5C07303EB00131C6010BD00008A
:100DF00010B50246002321B1012907D002290FD1E5
:100E000009E090681D4C00EA04030BE090681C4C5C
:100E100000EA040306E090681A4C00EA040301E0CB
:100E2000002300BF00BF184C181BA34216D007DCDC
:100E300083B16FF08060184470B1022818D111E0BE
:100E4000B0F5007F10D0114C204448B1B0F5003F00
:100E50000ED10BE002230DE000230BE0002309E09C
:100E6000002307E0012305E0012303E0012301E063
:100E7000002300BF00BFD8B210BD00000300000473
:100E80000003000800000310000100080001FFF744
:100E90002DE9FF4705460E464FF0000A06B10DB991
:100EA0004FF0010A9448007800F00F00032801DD9C
:100EB0004FF0010A90480078C0F30019BAF1000F12
:100EC00019D000208DF80A008DF80B0001208DF854
:100ED0000C000020ADF80000ADF80200ADF80400F1
:100EE000ADF80600ADF8080001208DF80D00684649
:100EF000FFF74CFDFEE00020ADF8080001208DF862
:100F00000D004FF000080024F2E07B48007800F06C
:100F10000F0030B101283BD002287BD0032874D1C8
:100F20009CE000208DF80B008DF80C0035F82400B3
:100F30004B460022114600F0E1F8ADF8020005EB47
:100F4000840148884B460022114600F0D7F8ADF8DE
:100F50000600601CC0B20446B04213DA35F8240023
:100F60004B460022114600F0C9F8ADF8000005EB31
:100F7000840148884B460022114600F0BFF8ADF8C6
:100F8000040004E00020ADF80600ADF804009CE089
:100F900001208DF80B0000208DF80C0035F824009E
:100FA0004B460022114600F0A9F8ADF80200601C83
:100FB000C0B20446B04207DA35F824004B4600229E
:100FC000114600F09BF800E00020ADF80600601C20
:100FD000C0B20446B04207DA35F824004B4600227E
:100FE000114600F08BF800E00020ADF80000601C16
:100FF000C0B20446B04209DA35F824004B4600225C
:10100000114600F07BF802E004E051E00020ADF86A
:1010100004005AE000208DF80B0001208DF80C0030
:1010200035F824004B460022114600F081F80746AF
:10103000B8B2ADF80200380CADF8000005EB840141
:1010400048884B460022114600F072F80746B8B2B5
:10105000ADF80600380CADF8040036E001208DF83C
:101060000B008DF80C0035F824004B460022114689
:1010700000F05EF80746B8B2ADF80200380CADF8E3
:101080000000601CC0B20446B04208DA05EB8401DF
:1010900048884B460022114600F04AF800E0002044
:1010A0000746B8B2ADF80600380CADF804000CE005
:1010B0000020ADF80200ADF80000ADF80600ADF874
:1010C000040034464FF0010A00BF00BF8DF80A80CB
:1010D0006846FFF75BFCB44202DA601CC4B200E071
:1010E00007E008F10100C0B280460D2800DB00E0F7
:1010F0000BE700BFBDE8FF877404002010B504466D
:10110000C4F309040AB1102000E0002002460BB12C
:10111000082000E00020034613B1C1F3C13000E015
:101120000020014642EA44101843084380B210BD33
:1011300010B50446C4F309040AB1022000E00020FF
:1011400002460BB1042000E00020034613B18803DF
:10115000C00A00E00020014642EA44301843084338
:1011600010BD000010B500210148FFF726FD10BD9D
:101170000064004070B50446002554B100210648C3
:10118000FFF71BFD054625B1224600210248FFF767
:1011900023FD284670BD0000006400402DE9F047A3
:1011A00006460C4617469846DDF820904FF0000A98
:1011B00015480760C0F8048000201349087248727F
:1011C00008468472224631460B30FEF7F9FF0E497D
:1011D0000E48FFF779FD0546042D09D04FF0010AAE
:1011E00029460A48FFF704FE012801D14FF0020A00
:1011F000BAF1010F04DBB9F1000F01D089F80050FA
:101200005046BDE8F0870000E80700200064004079
:101210000448006800F0E05008B101207047002049
:10122000FCE700000864004010B501E000F006F89B
:10123000FFF798FF0028F9D110BD000010B5244831
:10124000FFF798FF2248C07C20B101280AD002286D
:1012500018D10FE01E48827A00F10B011D4801F001
:1012600012F824E01A48827A00F10B011A4801F0C2
:101270000AF81CE01648827A00F10B01174801F0C9
:1012800002F814E01248C07C03280FDB1048C07C31
:1012900006280BDC0E48C07CC01E114901EBC000C3
:1012A0000B490B310A6802604968416000BF00BF0A
:1012B0000748C07C062809DC0548C07C094951F86C
:1012C00020000949096808430749086010BD00006B
:1012D0005C090020100800202008002040080020A1
:1012E00070090020C04A00088804002000B5034AA5
:1012F0005178107801F062FA00BD000070090020FA
:10130000F8B5FFF785FF00285FD00026002559E0DB
:101310002E4890F9000030B101280ED002281ED0CE
:10132000032840D12DE000F05DF80746002F03DBD5
:101330000126F8B200F07AF839E00822244925485D
:1013400000F08CFFC4B24CB10126234800234FF4B7
:101350002072214600901E48FFF720FF27E0082258
:101360001B491E4800F07AFFC4B24CB101261A484E
:1013700000234FF42872214600901548FFF70EFF16
:1013800015E008221249164800F068FFC4B24CB1BB
:101390000126114800234FF47072214600900C483A
:1013A000FFF7FCFE03E0FF200849087000BF00BF04
:1013B00006480078401C40B20449087006B103E0BA
:1013C000681CC5B2042DA3DD00BFF8BDBC0400201D
:1013D0008C04002030080020BD04002050080020AC
:1013E000100800204FF0FF30002109E001EB8102DE
:1013F000054B13F822200AB148B203E04A1CD1B2CF
:101400000729F3DB00BF704790090020002007E0A8
:10141000002100EB8002044B03F82210411CC8B2EB
:101420000728F5DB7047000090090020F8B5044656
:10143000002004EB84050E4E06EB850500902B6919
:1014400004EB840506EB8505EA6804EB840516F8D1
:10145000251004EB840506EB8505681CFFF79EFE4E
:10146000002004EB8401324602F82100F8BD0000A0
:10147000900900202DE9F04104460F4615461E460E
:10148000DDF81880072C1ADA04EB84000D4901F806
:10149000205004EB84010B4A02EB8101481C2A46D0
:1014A0003946FEF78DFE04EB8400064901EB80000F
:1014B000C66004EB840001EB8000C0F81080BDE83A
:1014C000F08100009009002010B50D4A32210D482E
:1014D00000F02AF80C4A32210C4800F025F80C4A9A
:1014E00032210C4800F020F80B4A32210B4800F062
:1014F0001BF80B4A32210B4800F016F810BD000013
:101500006008002010080020920800202008002019
:10151000C408002030080020F60800204008002001
:10152000280900205008002070B504460E461546D4
:101530002660E5600021204600F0DFFE70BD00005F
:1015400038B5FFF771FE68E0FFF76EFE002462E039
:10155000344850F82400344909680840002858D01D
:10156000072C4DD2DFE804F0040C1824273946007C
:1015700000BF69462D4800F0D2FE0028F9D13FE0B7
:1015800003E09DF8000000F04FFB6946284800F09A
:10159000C6FE0028F5D133E003E09DF8000000F01E
:1015A000CFFC6946234800F0BAFE0028F5D127E0B9
:1015B000FFF79CFE24E0204802F002FC1F4908804F
:1015C00005E01E480088A0F561601C4908801B48A2
:1015D0000088B0F5616FF4DA12E017480838007C33
:1015E000022806D11448093002F0E2FB00B2144987
:1015F000088005E010480838007E012800D100BFAF
:1016000000BF104850F824000749096808400649FF
:101610000860601CC4B2062C9ADD034800680028EC
:1016200092D138BDC04A000888040020100800206C
:10163000200800204008002078090020980400209D
:1016400096040020404B000810B5002006490860B1
:101650000649087007210648FFF71AFCFFF734FF18
:10166000FFF7D4FE10BD00008804002074040020A1
:101670009A04002010B5FE480078C8B1FD48006803
:1016800003F0AEF8A0B9FC480078FD2807D1FB486C
:101690000078401CC1B2F84801F092FE05E0F6481F
:1016A0000078552801D101F0ABFA0020F04908700C
:1016B000F348007801287DD1EF484078AA287AD1F4
:1016C000ED488078122877D00CDC122875D2DFE83C
:1016D00000F07422295E9FBDDCF8F9F5747474740F
:1016E0007474F4F3612869D00CDC402867D004DC02
:1016F00020287DD0302860D174E1502879D051283D
:10170000F9D17BE1622875D0632874D0802873D02A
:101710009D28F0D18BE10021084601F01BFE01F06D
:1017200051FD0EE201F09CFD0020D6490870D6491B
:101730000870D6490870D6490870D6490870D6494D
:101740000870D64908700120D5490870CA488079C8
:10175000D4490880084600884FF6FF7101EA00204E
:10176000D0490880C448407909880843CD49088099
:10177000C148C078CC490860BF480079CB490860AF
:1017800008460168C848006800F09DFCD9E101F0F6
:1017900067FD0020BB490870BC490870BC4908704F
:1017A000BC490870BD4908700120BB490870002081
:1017B000BB4905E029E2C5E103E1C1E123E117E10D
:1017C0000870B1490870AC484079B64908800846AD
:1017D00000884FF6FF7101EA0020B2490880A64850
:1017E000007909880843AF490880A348C07804E01D
:1017F000ECE0FEE00CE110E114E1AB4908600846C2
:1018000000684142A8480068404200F05CFC98E152
:1018100000209C4908709C4908709C490870012070
:101820009B49087000209B4908709C4908709A49A0
:1018300008709B4908709048C0789B49086008462A
:1018400001680068404200F03EFC7AE100208D49CA
:1018500008708D4908708D4908708D490870012005
:101860008C49087000208D4908708B4908708C499C
:1018700008708148C0788C49086008460068414279
:101880008948006800F01FFC5BE101207D49087079
:1018900000207D4908707D4908707D4908707D49A8
:1018A00008707E4908707C4908707D49087072484C
:1018B000C0787D49086044E178E06CE036E001E002
:1018C000FFE73EE101F0D6FC01F0CAFC00206D49C3
:1018D00008706D49087001206C49087000206C493F
:1018E00008706C4908706D4908706B4908706C4944
:1018F0000870614840796E490880084600884FF6B4
:10190000FF7101EA00206A4908805B480079098874
:101910000843674908805848C0786349086008460A
:1019200001680068404201F015FD0AE101F0A2FCE7
:1019300001F096FC002053490870534908700120BB
:1019400052490870002052490870524908705349A2
:101950000870514908705249087047484079544905
:101960000880084600884FF6FF7101EA00205049C0
:10197000088041480079098808434D4908803E485D
:10198000C0784949086008460068414246480068F6
:1019900001F0E0FCD5E03848C07846490870364888
:1019A00000794870344840798870CAE03248C0787D
:1019B0004049C8703048007908712F484079487113
:1019C000BFE006213B4800F01FFFBAE02A48C0787C
:1019D000C0433949086028480079C0433749C1F8F5
:1019E000AC02AEE02448C078C04335490860A8E0A6
:1019F000A7E00421334800F007FFA2E004213248A9
:101A000000F002FF9DE00421304800F0FDFE98E068
:101A100004212F4800F0F8FE93E004212D4800F047
:101A2000F3FE8EE01448C0782B49087089E0124814
:101A300080789D2805D11048C07810B90E2017492C
:101A400008700D48C078012807D00B48C0780228DC
:101A500003D00948C078032805D10748C0781F493A
:101A6000087003F017F804488078752847D137E0EC
:101A70001406002024060020590A00201306002026
:101A80002C060020450400203C04002042040020D5
:101A90004004002041040020440400204A040020A7
:101AA000430400205C04002054040020580400205B
:101AB0005E0400202D060020A8824342008043429D
:101AC000B4024142CA050020CE050020B605002020
:101AD000BA050020BE0500202006002011060020C7
:101AE0004A48C0784A4908704848007948704748D1
:101AF0004079887075204749087002F0CBFF434851
:101B0000807876280ED14148C0784149C8703F4856
:101B1000007908713D484079487176203D49087048
:101B200002F0B8FF3C4800780E2808D13B48007806
:101B3000012804D100203949087002F0ABFF00E011
:101B400000BF5FE0314840780B2833D12F488078C0
:101B5000102857D12D48C07850B32C48C0780128A0
:101B600011D12F48006808B9012000E000202C495D
:101B70000860412001F066FD422001F063FD432032
:101B800001F060FD3EE02148C078022811D12448D0
:101B9000006808B9012000E00020214908604120C8
:101BA00001F050FD422001F04DFD432001F04AFDBF
:101BB00028E027E01548407801281FD11848006820
:101BC00008B9012000E00020154908600F48C078DE
:101BD00008B9012000E00020A0B90C48007988B9BC
:101BE0000A488078012802D102F044FD0AE0074843
:101BF0008078022806D102F00BFD03E0082103489B
:101C000001F0DEFB00200749087010BD590A0020D2
:101C10000A060020110600204A04002012060020B7
:101C2000B08243422C06002010B504460F480078CD
:101C300070B902F0CFFD0A300D49086000200D494F
:101C400008700D48097844540120084908700BE0D9
:101C500008480078C82807DA06480078401CC0B257
:101C60000449087004490C5410BD000014060020FB
:101C70002406002013060020590A002010B5A648AB
:101C8000007800287ED0A548006802F0A9FD002851
:101C900078D1A3480078552875D1A148407802280A
:101CA000FAD19F488078AA2839D100209D49087030
:101CB00012E09B48007900F0010030309A49994ABF
:101CC00012788854964800794010954908719548D3
:101CD0000078401C93490870924800780828E8DB97
:101CE00000209049087012E08D48C07800F0010093
:101CF00030308D498B4A12788854894800794010D9
:101D00008749087187480078401C864908708548D3
:101D100000780828E8DB152184A001F00FFB80483B
:101D20008078012801D1824908707D488078032895
:101D300002D102207E49087079488078022802D1B9
:101D400003207B49087076488078CC2802D1042093
:101D50007749087072488078AB2802D10520744911
:101D600008706F488078CC2806D16D48C078052867
:101D700002D106206E49087069488078992809D1F7
:101D8000674801E0C7E019E0C078032802D10D20C0
:101D90006849087062488078992806D16048C07800
:101DA000052802D10F206349087032225C4962483D
:101DB000FEF706FA012061490870A9E0584840780A
:101DC000032808D1564880780128F6D15448007974
:101DD000584908709CE0524840780C280CD1504873
:101DE00080780128E9D14E48C0780128E5D14C48D7
:101DF0000079504908708BE0494840780D2803D09D
:101E000047484078052823D14548807803287FD16A
:101E10004348C07801287BD141480079012806D089
:101E2000022808D003280AD0042810D10BE009208A
:101E3000404908700BE00A203E49087007E00B207B
:101E40003C49087003E00C203A49087000BF5FE08D
:101E5000334840780D2803D031484078052833D1E5
:101E60002F48C078022853D12D480079012807D186
:101E70002B484079012803D111202E49087047E0F2
:101E800027480079022807D125484079022803D144
:101E90002220284908703BE021480079012807D119
:101EA0001F484079022803D11220224908702FE0F0
:101EB0001B48007902282BD119484079012827D1E5
:101EC00021201C49087023E01548407806280FD1CE
:101ED00013488078012803D11148C078154908704B
:101EE0000F488078042813D1EF20124908700FE0C2
:101EF0000B48407810280BD109488078012807D179
:101F00000748C078012803D10548007909490870BD
:101F100000200149087010BD160600202806002088
:101F2000210B002010060020440A002074700000DD
:101F3000170600204A040020760700202106002012
:101F400010B504461948007888B919481949097824
:101F5000445418480078401C164908700846007818
:101F6000C82804DD002008700120104908700F48BF
:101F7000007870B902F02EFC0A300F49086000208A
:101F80000C4908700A480978445401200749087030
:101F90000BE008480078C82807DA06480078401C9B
:101FA000C0B20449087002490C5410BD1606002046
:101FB000210B002015060020280600207FB50546CD
:101FC0000C460121202000F0CDFF0295ADF8044021
:101FD0000020ADF80600ADF80C008DF80E0001A948
:101FE0000F4801F023FC012211460D4801F015FCB9
:101FF00001210B4801F0EEFB37208DF80000002096
:102000008DF8010004208DF8020001208DF80300F6
:10201000684600F0AFFD0121014801F0E1FB7FBD02
:102020000014004010B5FFF78BFAFFF769F910BDF7
:102030001CB501214FF4C07000F084FFF020009027
:1020400000208DF8040001208DF80700694614482F
:1020500000F0A5F94FF47040009001208DF80400C5
:1020600000208DF8060001208DF8070003208DF870
:10207000050069460B4800F092F9202000900120ED
:102080008DF8040000208DF8060001208DF807006F
:1020900003208DF805006946024800F080F91CBD58
:1020A00000200240001C024070B505460C46002688
:1020B000284601F035F8064626EA0401284602F0D3
:1020C0006DFA002070BD70B505460C46002D06DB8C
:1020D000642D00DD6425052D0BDA052509E015F1D9
:1020E000640F01DA6FF0630515F1050F01DD6FF084
:1020F0000405002C06DB642C00DD6424052C0BDABF
:10210000052409E014F1640F01DA6FF0630414F19F
:10211000050F01DD6FF004042146284601F01AF98D
:1021200070BD000010B5102000F03CF8012825D14A
:102130001021134800F09EF9E8B90021114801F080
:102140004FFB114890ED000AB8EE400A0F4880EDB1
:10215000000AD0ED000A9FED0E1AB3EE040A10EE4D
:10216000810A80ED000A90ED000ABCEEC00A10EE74
:10217000100A08490880102000F00EF810BD000079
:102180000004024000100040D8010020D4010020CB
:10219000F628DC3FDC0100200149086070470000A0
:1021A000143C014001460020034A12680A400AB16B
:1021B000012000E000207047143C01400021234929
:1021C0008279002A3AD00A46126803689A430B467D
:1021D0001A600A1D126803689A430B1D1A6002797F
:1021E00011440A6803681A430A60184A08321268E0
:1021F00003689A43154B08331A601A1D1268036866
:102200009A43124B0C331A604279102A0ED11A1FCE
:10221000126803681A430D4B08331A601A1D1268BE
:1022200003681A43094B0C331A600DE007494279E1
:1022300011440A6803681A430A6005E002791144F0
:102240000A6803689A430A6070470000003C014036
:1022500010B500F001FDFEF7A1F910BDF0B507467D
:102260000C461646002564B106E06119384600F0B8
:1022700056F800B904E06D1C301EA6F10106F4D139
:1022800000BF2846F0BDF0B507460D4616460024AF
:1022900006E0295D384600F06CF800B904E0641CE3
:1022A000301EA6F10106F4D100BF2046F0BD30B5C6
:1022B00004460025204600F04AF870B1D4E9000138
:1022C000401E814203D1A06838B1012505E0D4E960
:1022D0000101401C814200D00125284630BD30B5A7
:1022E00004460025204600F032F820B1D4E9011060
:1022F000884200D00125284630BD70B504460D4601
:1023000064B12068012809D90020A0602068401E1F
:1023100060602A462168E068FDF764FF70BD70B513
:1023200004460D46002685B12046FFF7C0FF60B188
:102330006068401C60602168884201D300206060B2
:102340006168E068405C28700126304670BD014637
:10235000002069B10A68012A0AD9CA6842B10B682B
:102360008A689A4204D2D1E900329A4200D201200E
:10237000704770B504460D4600262046FFF7AFFFB4
:1023800058B1A168481CA060E06845542168A06865
:10239000884201D30020A0600126304670BDF0B510
:1023A0000A4600210023002400BF3DE0012505FA74
:1023B00001F3156805EA03049C4234D105684F0017
:1023C0000326BE40B543056015794E00B54006684A
:1023D000354305601579012D02D01579022D16D1EE
:1023E00085684F000326BE40B543856055794E0091
:1023F000B540866835438560456801268E40B54303
:102400004560456896798E40B6B235434560C568EB
:102410004F000326BE40B543C560D5794E00B54098
:10242000C6683543C560491C1029BFD3F0BDF0B55F
:10243000002300244D07ED0E02FA05F3CE1000F143
:10244000200555F826504E07F70E0F26BE40B5431F
:10245000CF1000F1200646F82750CE1000F12005DD
:1024600055F8265045EA0304CE1000F1200545F842
:102470002640F0BD0246002013690B400BB101203D
:1024800000E00020704741837047018370470000DF
:1024900010B502210848FEF75BF80748FEF758F927
:1024A00000BF02210448FEF7C3F80028F9D0024813
:1024B000FEF7BAF810BD00000020014070B52DED08
:1024C000068B012001F028F8102001F025F800F01B
:1024D00033FB0F480478407800EB04242046FDF7D6
:1024E00002FF41EC1A0B9FED0B0B53EC102BFDF789
:1024F0008BFE41EC190BFDF71AFF08EE100ABDEE3A
:10250000C80A10EE105AA8B2BDEC068B70BD0000D0
:10251000E2010020333333333333F33F70B50446E5
:102520000025002607E0FFF7B3FF0544052002F071
:1025300005F9701CC6B2A642F5DBB5FBF4F080B21B
:1025400070BD00000146002021B107290AD00829EA
:102550000ED10AE0074A5278064B1B7802EB0322A1
:1025600090B205E0034A507802E0024A107800BFBA
:1025700000BF70479404002010B516480078012869
:1025800013D100F049FE14490988884221DB00205C
:102590001049087003201149087002201049087082
:1025A0000021084600F0D6FE13E00E48007801280E
:1025B0000FD100F031FE08490988884209DB00206C
:1025C000084908700320054908700021084600F0FA
:1025D000C1FE10BD430400205C0400204A0400201A
:1025E0006A0400204404002000B589B001212120A4
:1025F00000F0A8FC09220B214248FFF718FF09222E
:102600000C214048FFF713FF4FF4C0500790022001
:102610008DF820008DF8210000208DF82200012087
:102620008DF8230007A93748FFF7B9FE4FF4806003
:10263000079001208DF8200002208DF82100002055
:102640008DF8220001208DF8230007A92E48FFF7FE
:10265000A6FE002000F05EF80121480600F082FC92
:102660002A48FEF777F900208DF8160001208DF832
:10267000170000208DF8180001208DF819000020A7
:102680008DF81A0001208DF81B0000208DF8120033
:102690008DF8130001208DF8140002208DF815002C
:1026A0000720ADF8100004A91848FEF7FCF9002037
:1026B0008DF80A008DF80B0001208DF80C00002029
:1026C000ADF80000ADF80200ADF80400ADF806006A
:1026D000ADF8080001208DF80D006846FEF756F9A8
:1026E00012200B49086048600020487208720120DF
:1026F0008872002202210548FEF7CCF9FEF7A4FFFC
:1027000009B000BD00000240001402400064004017
:102710001C0A002010B504462CB94FF4806105480E
:10272000FFF7B1FE04E04FF480610248FFF7ADFE11
:1027300010BD00000014024010B5FFF773FC10BD7F
:1027400010B504462CB14FF480710548FFF79DFE8B
:1027500004E04FF480710248FFF795FE10BD0000C1
:102760000020024010B54FF4E06000F03FFAA820CE
:1027700001F0C6FF01F0BCF800F026F8FFF758FCA6
:1027800001F0ABFEFFF730FFFDF7E8FFFEF7DEF8E4
:10279000FFF75EFD01F032FD53210720FFF70EFC2D
:1027A000A72140F2F31002F0AFF840F2E731A72082
:1027B00001F0DCF800F0C9FC10BD0000014A107007
:1027C00051707047940400201CB50121202000F0B6
:1027D000B9FB4FF40060009001208DF80400002048
:1027E0008DF8060001208DF8070003208DF8050004
:1027F00069460348FFF7D3FD0120024908601CBD6C
:1028000000140240AC8242422DE9F041074688465E
:10281000002028490860092001F090FF0120264986
:10282000C1F8AC02042001F089FF4FF40C7001F0F4
:10283000ABFF00242EE0002528E0385D284100F0A1
:10284000010676B900201B4908604FF4FA7001F0C8
:102850009BFF01201849C1F8AC024FF4FA7001F057
:1028600093FF012E10D10020124908604FF4FA7036
:1028700001F08AFF01201049C1F8AC0201F05EFFAF
:102880004FF4487001F080FF681CC5B2082DD4DBFE
:10289000601CC4B24445CEDB0020064908604FF4FA
:1028A0000C7001F071FF01200349C1F8AC02BDE8D2
:1028B000F0810000AC8242420080424210B500F03C
:1028C0001CFA08B1FE2010BD00F004FA022001F04D
:1028D00035FF00F005FA412000F0F8F808B1FE20BD
:1028E000F1E70120014908700020ECE736020020E2
:1028F00010B53748006808BB142001F01FFF00BF67
:10290000334800680028FBD0142001F017FF31483D
:10291000006808B9012000E000202E4908602E4818
:102920000068401C2C4908600A2001F007FF2A4873
:102930000068322802DD0120274908602448001D74
:10294000006800BB142001F0F9FE00BF2048001D04
:1029500000680028FAD0142001F0F0FE1D48001D88
:10296000006808B9012000E000201A49091D08602C
:102970001A480068401C1949086008460068322857
:1029800001DD0120086012480830006870B9142089
:1029900001F0D4FE00BF0E48083000680028FAD0CD
:1029A000142001F0CBFE042000F04EF808480C3053
:1029B000006858B9142001F0C1FE00BF04480C3073
:1029C00000680028FAD0142001F0B8FE10BD000005
:1029D00010024442B08243425001002058010020BE
:1029E00038B50024642001F0A9FEFFF767FDADF8BB
:1029F0000000002523E0601CC4B200F0B7FD4FF4D6
:102A0000FA7001F09BFE4FF4FA7001F097FEFFF7A9
:102A100055FDADF80200BDF80000BDF80210884277
:102A200007DABDF80200ADF800000020ADF80200A2
:102A300003E0C4F10500C4B203E0681CC5B2042D74
:102A4000D9DB00BF204638BD10B50446FFF7C8FFEC
:102A50001C4908701C4804700846007801280BD0F7
:102A600008460078022807D008460078032803D0DB
:102A700008460078042823D11348007801281FD085
:102A800011480078022806D100F070FD4FF4FA706A
:102A900001F054FE14E00C480078032806D100F041
:102AA0007DFD4FF4FA7001F049FE09E00648007818
:102AB000042805D100F066FD4FF4FA7001F03EFEE7
:102AC00010BD0000020400200304002010B50446DD
:102AD000412C25D108210846FFF7E6FA3D211120B7
:102AE00001F05CFD8621172001F058FD7F21262092
:102AF00001F054FD1E212D2001F050FD00212C205D
:102B000001F04CFD8D212A2001F048FD3E212B20B3
:102B100001F044FD0A2001F011FE00F0E1F801E0AF
:102B2000FF2010BD0020FCE702468A4201D9501A5E
:102B30007047881AFCE7000010B5FDF7D3FE472068
:102B4000FDF7A4FE00240EE0FDF756FE08490855E7
:102B5000032C03D10120FDF779FE02E00020FDF7F0
:102B600075FE601CC4B2032CEEDBFDF7D7FE10BD72
:102B7000E201002070B5002100230F22C4781CB3AD
:102B8000174C246804F4E064C4F5E064C4F307213E
:102B9000C1F10404E3B20A4144789C40E1B2847874
:102BA000144021430C07210E0E4C05786155047822
:102BB00004F01F050124AC4005786D11AD0005F14E
:102BC000E025C5F8004109E0047804F01F05012460
:102BD000AC40054D0678761145F8264070BD0000E2
:102BE0000CED00E000E400E080E100E00249014378
:102BF000024A1160704700000000FA050CED00E089
:102C000010B51348C079BB2821D111498978104AE1
:102C1000D27811440E4A127911440D4A527988181B
:102C2000C11700EB11610912A0EB0121CCB20848D9
:102C30008079A04207D10821054800F0B5FB0120AA
:102C40000449087002E000200249087000BF10BD6E
:102C5000590A00202C06002010B52DED048BB0EE93
:102C6000080A164880ED000A90ED000ADFED140A0C
:102C700020EE200A80ED000A9FED120A124880ED36
:102C8000000A90ED000ADFED0E0A20EE200A10EE99
:102C9000101A0846FDF738FB41EC190B9FED0B0BA2
:102CA00053EC102BFDF7B0FA41EC180BFDF73FFB8E
:102CB00005490860BDEC048B10BD0000FC0100203C
:102CC0000000C84200CC0D41F801002000000000C7
:102CD0000070A74010B503211420FFF7E5F910BDDF
:102CE00010B5142000F01CFA044604F0030018B9D3
:102CF0000321142000F08AFB10BD10B500F0F1F99B
:102D000008B1FE2010BD0F21012001F047FC3D213C
:102D1000112001F043FC1E212D2001F03FFC002179
:102D20002C2001F03BFC8D212A2001F037FC3E21B4
:102D30002B2001F033FC4021152001F02FFC002056
:102D4000E0E7000010B50320FFF7E8FB51490880D9
:102D50000846008800F0EEFB4E4908804E48018886
:102D60004C480088FFF7E0FE4C4908704A4800884C
:102D7000F0BB4B48D0ED000A4648008800EE100A30
:102D8000B8EE400A20EE800ABCEEC00A10EE100A2F
:102D9000404908800846008800EE100AB8EE400A54
:102DA0004048D0ED000AB4EEE00AF1EE10FA03D28A
:102DB00000203D49087016E03648008800EE100AF1
:102DC000B8EE400A3748D0ED000A30EE600ABCEE9B
:102DD000C00A10EE100A34490870084600786428CA
:102DE00001DD64200870304800783049087000E048
:102DF00004E008460178012000F08AFA254800889E
:102E000025490880254800780A2842DD2448D0ED6D
:102E1000000A2048008800EE100AB8EE400A20EEB2
:102E2000800ABCEEC00A10EE100A1A490880084653
:102E3000008800EE100AB8EE400A1A48D0ED000AE9
:102E4000B4EEE00AF1EE10FA03D200201649087041
:102E500016E01048008800EE100AB8EE400A11484B
:102E6000D0ED000A30EE600ABCEEC00A10EE100A87
:102E70000D49087008460078642801DD6420087058
:102E8000094800780949087008460178012000F0D7
:102E90003FFA10BD020200200402002006020020BA
:102EA000F8010020FC01002000020020F6010020B3
:102EB00010B586B004460121084600F043F8012110
:102EC000102000F06FF8072209211B48FFF7AFFA26
:102ED00007220A211848FFF7AAFA4FF4C0600490AD
:102EE00002208DF8140000208DF8160001208DF8C6
:102EF000170003208DF8150004A90F48FFF74FFABB
:102F000000940020ADF80C000C20ADF80A00002061
:102F1000ADF80800ADF80600ADF8040069460748B2
:102F200001F0F8F80121054801F08BF80020044970
:102F3000087006B010BD0000000002400010014003
:102F40003602002029B1064A12680243044B1A6077
:102F500004E0034A12688243014B1A607047000084
:102F60003038024029B1064A12680243044B1A6005
:102F700004E0034A12688243014B1A607047000064
:102F80004038024029B1064A12680243044B1A60D5
:102F900004E0034A12688243014B1A607047000044
:102FA0002038024029B1064A12680243044B1A60D5
:102FB00004E0034A12688243014B1A607047000024
:102FC0004438024029B1064A12680243044B1A6091
:102FD00004E0034A12688243014B1A607047000004
:102FE00024380240F0B500210022002402250026EA
:102FF0000223324F3F6807F00C0121B1042905D0AC
:10300000082937D105E02E4F076036E02D4F0760C5
:1030100033E02A4F3F1F3F68C7F38056274F3F1FBB
:103020003F6807F03F036EB1264FB7FBF3F7DFF8B9
:103030008CC0ACF1040CDCF800C0CCF3881C07FB9E
:103040000CF40CE01E4FB7FBF3F7DFF870C0ACF1E7
:10305000040CDCF800C0CCF3881C07FB0CF4174F01
:103060003F1F3F68C7F301477F1C7D00B4FBF5F7A6
:10307000076002E0124F076000BF00BF0F4F3F68BC
:1030800007F0F0010909104F7A5C0768D7404760E4
:103090000A4F3F6807F4E051890A0B4F7A5C476892
:1030A000D7408760054F3F6807F46041490B064FE2
:1030B0007A5C4768D740C760F0BD0000083802401E
:1030C0000024F40040787D011004002001480078BD
:1030D000704700003602002010B5142000F020F8E0
:1030E00010BD38B5FE2500200090002400BF12E07E
:1030F000552000F071F942F21071684600F032F884
:1031000038B9552000F068F9642001F017FB00255C
:1031100003E0601C84B2642CEADB00BF68B238BDF7
:1031200038B5044604F03F0040F08004204600F02B
:1031300053F942F21071684600F014F805460DB1DB
:10314000FF2038BD9DF80000FBE710B54FF4165086
:10315000FFF7AEFE4FF4FA7001F0F0FAFFF7AEFBA6
:1031600010BD000070B504460D4601F033FB4FF46E
:10317000FA61B5FBF1F146180AE00A48008800F050
:10318000200028B1074801F02FF82070002070BD02
:10319000304601F025FB0028EFD1034908700120DB
:1031A000F5E70000001001403602002010B500F0E5
:1031B00001FDFFF7E1F901F01BFC01F0D9FB01F083
:1031C000F7FB10BD00200A4908700A4908700A4937
:1031D00008700A4908700A4908700A4908700A49C3
:1031E00008700A4908800A4908700A49087070473F
:1031F000450400203C04002040040020410400203D
:10320000440400204A040020430400205C04002001
:1032100047040020460400200F48B0F900000F4A80
:10322000B2F90020904207DD0B48B0F900000B4ACC
:10323000B2F90020811A06E00848B0F90000064AF9
:10324000B2F90020811AB1F5004F02D94FF6FF7094
:10325000411A88B270470000960400206C040020D8
:103260000248B0F900000249088070479604002027
:103270006C04002002480088024908807047000062
:10328000980400206E0400201CB5802000900020CF
:103290008DF8040001208DF8070069460148FFF70A
:1032A0007EF81CBD000402401CB580200090012067
:1032B0008DF8040000208DF8060003208DF805002D
:1032C00069460248FFF76BF81CBD0000000402408D
:1032D00030B500228B071C0F0F2303FA04F20B4BAF
:1032E0008C1053F824309343084C8D1044F825304B
:1032F00023468C1053F824308C07240F00FA04F472
:103300002343024C8D1044F8253030BD083801406D
:103310007CB505460C4603208DF8040001208DF88D
:1033200005008DF8064000204FF4F073032201A938
:1033300000901046FEF79EF87CBD000070B5044674
:103340000D462A4621460248FEF79DFF70BD00004B
:10335000100800207CB504460D46E0B28DF804004C
:10336000E0B28DF80500E8B28DF80600E8B28DF8FD
:103370000700FDF74DFF78B100200346202204210D
:10338000009001A8FDF70AFF00202023024601A9B2
:103390000090FEF76FF806E000202023042201A928
:1033A0000090FEF767F87CBD70B504460D462A46CE
:1033B00021460248FEF767FF70BD0000300800207C
:1033C00070B504460D462A4621460248FEF75BFFCB
:1033D00070BD00005008002010B504460A4800885F
:1033E00000BF0948008800F080000128F9D021467C
:1033F000054800F0FEFE00BF4021034800F02DFE0E
:103400000128F9D110BD00000010014070B505463B
:103410000C4600262846FFF783FE064646EA0401CE
:10342000284601F0BBF8002070BD00000CB500205C
:10343000019000903448006840F4803032490860C0
:1034400000BF3148006800F4003000900198401C33
:103450000190009818B90198B0F5A04FF1D12A4811
:10346000006800F4003010B10120009001E000205D
:1034700000900098012846D123484030006840F071
:1034800080502149403108602048006840F44040A5
:103490001E4908601C48083000681B490831086054
:1034A0000846006840F4004008600846006840F4A0
:1034B000A05008601648091F0860081F006840F007
:1034C0008070091F086000BF0F48006800F000709E
:1034D0000028F9D040F205700E4908600A4808300B
:1034E000006820F0030008490831086008460068B9
:1034F00040F00200086000BF03480830006800F098
:103500000C000828F8D10CBD0038024000700040C3
:1035100019544007003C024010B50446FDF7E2F99B
:103520004620FDF7B3F92046FDF7B0F9FDF7F6F9AF
:1035300010BD000010B5024600230B488282002116
:103540000BE0094C481C34F8100024F81100204608
:1035500030F81100184483B2491C0A29F1DB0A2013
:1035600093FBF0F080B210BDA807002010B5042135
:103570000348FFF749F9642001F0E0F810BD0000AE
:10358000A603002010B504210348FFF73DF964208D
:1035900001F0D4F810BD0000AE03002010B50421E6
:1035A0000348FFF731F9642001F0C8F810BD0000AE
:1035B000AA030020042808D14FF0E021096941F056
:1035C00004014FF0E022116107E04FF0E0210969AA
:1035D00021F004014FF0E0221161704710B5154849
:1035E000006840F47000134908601348006840F018
:1035F00001001149086000200F49083108600E4899
:1036000000680E4908400C4908600D48091D086013
:10361000081F006820F48020091F08600020064968
:103620000C310860FFF702FF4FF00060014980395C
:10363000086010BD88ED00E000380240FFFFF6FE94
:103640001030002410B50446552022490870412C42
:1036500002D10B2048700AE0422C03D108201D49FA
:10366000487004E0432C02D112201A4948701020FF
:10367000184988700220C870002008714871897844
:10368000144AD2781144134A12791144114A5279DA
:103690008818C11700EB11610912A0EB01210D4A36
:1036A0009171BB201146C871012001F047F8082133
:1036B0000848FFF785FE642001F040F80020054926
:1036C000087048708870C870087148718871C87136
:1036D00010BD00007502002010B501211A4800F04D
:1036E0008BF801282BD119480078022810D11848EE
:1036F0000088401C164908800846008842F2107174
:10370000884205DB04201149087000201049088018
:1037100010480078012810D10F480068401C0E495D
:1037200008600846006842F21071884205DB0220FA
:1037300008490870002008490860FFF737FD01219B
:10374000014800F04AF810BD004001406A04002022
:103750002E040020980200209C02002010B50121B8
:10376000074800F049F8012804D106480068401CC9
:10377000044908600121024800F02FF810BD000044
:10378000004401400804002010B50121074800F062
:1037900033F8012804D106480068401C0449086039
:1037A0000121024800F019F810BD0000001000408F
:1037B000D801002010B50121054800F01DF80128AE
:1037C00001D1FEF7B9FF0121014800F006F810BD54
:1037D00000140040CA4302827047CA430282704705
:1037E00021B1028842F00102028004E002884FF613
:1037F000FE731A400280704730B502460020002355
:103800000024158A05EA0103958905EA010413B12C
:103810000CB1012000E0002030BD1AB183890B43B8
:10382000838102E083898B43838170470022028871
:10383000184B98420ED0184B98420BD0B0F1804FE5
:1038400008D0164B984205D0154B984202D0154B24
:10385000984204D14FF68F731A404B881A43124B8B
:10386000984207D0114B984204D04FF6FF431A40BC
:103870000B891A4302804B68C3620B880385054B92
:10388000984202D0044B984201D18B7A03860123DF
:1038900083827047000001400004014000040040A2
:1038A00000080040000C00400010004000140040E0
:1038B0001CB501210420FFF745FB4FF40050009098
:1038C00001208DF8040000208DF8060001208DF8FD
:1038D000070003208DF8050069460448FEF75FFDE8
:1038E0004FF400510148FEF7D0FD1CBD0008024016
:1038F00010B500F005F8FFF7DBFF00F017F810BD7A
:103900001CB501214020FFF71DFB4FF48070009093
:1039100000208DF8040001208DF807006946024858
:10392000FEF73DFD1CBD0000001802401CB5012142
:103930008020FFF707FB4FF44060009001208DF8D6
:10394000040000208DF8060001208DF807000320F8
:103950008DF8050069460448FEF721FD4FF44061EB
:103960000148FEF792FD1CBD001C02407FB50546D4
:103970000C4601214804FFF715FB0295ADF8044001
:103980000020ADF80600ADF80C008DF80E0001A97E
:103990000F48FFF74BFF012211460D48FFF73DFF8F
:1039A00001210B48FFF716FF19208DF800000020B9
:1039B0008DF8010006208DF8020001208DF803002B
:1039C0006846FFF7D7F801210148FFF709FF7FBDDF
:1039D0000044014010B504460CB1FF2C0ED16C48D8
:1039E0000078401C6A490870084600783C2804D1D9
:1039F00000200870012067490870BFE00020664978
:103A00000870E72C07D1654800686549086065487B
:103A100000686549086065480078022854D0F72C92
:103A20000BD15E4800685E4908605E4800685E49E8
:103A3000086000205D49087046E0F32C03D0FB2CA1
:103A400001D0F12C0DD1554800689B3054490860D5
:103A500054480068401F54490860002053490870CA
:103A600032E0F92C03D0FD2C01D0F82C0DD14B48BD
:103A70000068A0304A4908604A4800680A384A4944
:103A800008600020494908701EE0FC2C0DD1434815
:103A90000068A53042490860424800680F38424932
:103AA00008600020414908700EE0FE2C0CD13B4814
:103AB0000068AA303A4908603A48006814383A4920
:103AC000086001203949087038480078012855D02D
:103AD000EF2C0BD133480068334908602F48006849
:103AE0002F49086000203149087047E0CF2C03D0EF
:103AF000DF2C01D08F2C0CD12A4800688C302A4949
:103B00000860264800682649086000202749087098
:103B100034E09F2C03D0DF2C01D01F2C0DD1214885
:103B200000689130204908601C480068401F1C490B
:103B3000086000201D49087020E03F2C01D0BF2CF8
:103B40000DD118480068963017490860134800687E
:103B50000A38134908600020144908700EE07F2CD1
:103B60000CD1104800689B300F4908600B48006872
:103B70000F380B49086002200C4908700C48007887
:103B800028B10948016806480068FEF79CFA10BD94
:103B900060040020690400204A040020540400202E
:103BA0004C04002058040020500400204804002049
:103BB0003C04002010B50B480078012806D10820ED
:103BC000FEF7C0FCC4B2204600F010F806480078AA
:103BD000012806D10820FEF7B5FCC4B22046FFF745
:103BE000F9FE10BD450400203C04002010B5044639
:103BF0000CB1FF2C20D166480078401C6449087045
:103C0000084600780A2804D1002008700120614984
:103C100008706048007801280DD100205E490870C6
:103C200001205E490870FF2C01D15D490870002118
:103C30000846FFF78FFBA1E0002058490870E72CE9
:103C400005D14620574908605F205749086057480A
:103C50000078022846D0F72C0AD15F20514908602D
:103C60006FF01D005049086000205049087039E08D
:103C7000F32C03D0FB2C01D0F12C0AD15F20494951
:103C800008606FF045004849086000204749087007
:103C900028E0F92C03D0FD2C01D0F82C0AD15A20B1
:103CA000404908606FF04F003F49086000203F49DD
:103CB000087017E0FC2C09D15A203A4908604042AC
:103CC000394908600020394908700BE0FE2C09D101
:103CD0005F20344908606FF06300334908600120B9
:103CE0003249087031480078012847D0EF2C0AD1BA
:103CF00064202D4908606FF013002A4908600020F5
:103D00002A4908703AE0CF2C03D0DF2C01D08F2C49
:103D10000AD15F20244908606FF0450021490860FE
:103D200000202249087029E09F2C03D0BF2C01D02D
:103D30001F2C0AD15F201C4908606FF04F00194901
:103D4000086000201949087018E03F2C0AD15F2054
:103D5000154908606FF059001249086000201349A6
:103D600008700BE07F2C09D15F200F4908606FF0CD
:103D700063000C49086002200C490870064800786E
:103D800028B10948016807480068FEF79CF910BD92
:103D90006004002069040020450400204A0400203B
:103DA0006A0400204C040020500400204804002035
:103DB000024600215178107840EA012108467047F8
:103DC000024600211178507840EA012108467047E8
:103DD00010B5024800F0DAFA10BD00001807002004
:103DE00010B51248007800BB40F22551104800F091
:103DF00041F9012819D10E4800F0F6F90D490E4A93
:103E0000127888540C480078401C0B49087008460A
:103E10000078022804DB00200870012003490870A4
:103E200040F22551024800F0FDF810BDDE010020EF
:103E300000100140E0010020DF01002010B540F239
:103E40002551184800F016F901282AD116480078A3
:103E500090B900F0BFFC0A301449086000201449F2
:103E60000870104800F0C0F91249114A12788854BD
:103E700001200D4908700FE00D480078C8280BDAC2
:103E8000084800F0B1F9C1B209480078401CC0B23E
:103E9000074A1070074A115440F22551014800F0BA
:103EA000C1F810BD00440040140600202406002084
:103EB00013060020590A002000B587B00121042014
:103EC000FFF740F801212020FFF76CF808220621B7
:103ED0002348FEF7ACFA082207212148FEF7A7FA8B
:103EE000C020059002208DF8180000208DF81A00DF
:103EF00003208DF8190001208DF81B0005A9184832
:103F0000FEF74DFA4FF4E13001900020ADF81000BB
:103F10000C20ADF80E000020ADF80C00ADF80A0042
:103F2000ADF8080001A90F4800F0F4F8012240F2B2
:103F300025510C4800F0C8F847208DF800000020FB
:103F40008DF801008DF8020001208DF8030068460D
:103F5000FEF710FE0121034800F073F807B000BD22
:103F6000000802400014014010B540F225512848D5
:103F700000F080F8002845D0254800F035F92549A3
:103F800008702548007878B908460078552839D156
:103F90000120214908701F4800782049087000203E
:103FA00048708870C8702DE01B480078012807D140
:103FB000022019490870174800781849487021E014
:103FC00015480078022807D10320134908701148CA
:103FD00000781249887015E00F48007803280AD14C
:103FE00000200D4908700B4800780C49C87001206A
:103FF0000B49087006E0002007490870084908705E
:104000000649087040F22551014800F00BF810BD38
:1040100000140140A0020020A1020020A202002002
:10402000AA02002010B50022002340F66A14A14223
:1040300000D100BF0A1201249440A3B2DC430480E3
:1040400010BD21B1828942F40052828104E082894C
:104050004DF6FF731A408281704702460020B1F589
:10406000007F00D100BF13880B400BB1012000E09E
:104070000020704770B50246002400230025002070
:1040800040F66A16B14200D100BFC1F3421501F0FB
:104090001F03012606FA03F3012D02D1968933404E
:1040A00006E0022D02D1168A334001E0968A3340A1
:1040B0000C12012606FA04F41688344013B10CB130
:1040C000012000E0002070BDF0B50346002400266A
:1040D0000025002040F66A17B94200D100BF1846FB
:1040E000C1F3421401F01F06012707FA06F5012C5F
:1040F00001D10C3004E0022C01D1103000E014306A
:104100001AB107682F43076002E00768AF430760F2
:10411000F0BD00002DE9FF4705460E460024A146EC
:1041200000BFA046B08900B100BF2C8A24F44054DF
:10413000F08804432C82AC8941F20C608443B0883F
:1041400031890843718908430443AC81AC8A24F463
:104150004074B0890443AC826846FEF743FF2048B0
:10416000854202D01F48854202D1DDF80C9001E063
:10417000DDF80890A88900F4004040B109EBC900BF
:1041800000EB091031684900B0FBF1F707E009EBDB
:10419000C90000EB091031688900B0FBF1F7642019
:1041A000B7FBF0F004012009642101FB1078A88915
:1041B00000F4004040B1322000EBC800B0FBF1F049
:1041C00000F00700044308E0322000EB08106421EF
:1041D000B0FBF1F000F00F0004432C81BDE8FF8735
:1041E000001001400014014001468888C0F3080017
:1041F0007047C1F3080282807047000010B5124872
:104200001249C1F8B00032211048C0F8B4100021A2
:10421000C0F8B810C0F8BC10C0F8C0100C49C0F805
:10422000C4100221C0F8C8100021C0F8CC10C0F89A
:10423000D010C0F8D410042180F8D810002005490F
:10424000087000F009F810BD340600206806002050
:10425000080200200702002000B587B0012140F2CB
:104260000910FEF76FFE01214FF42020FEF77AFEC1
:10427000082200214048FEF7DAF8072206213F48CD
:10428000FEF7D5F800208DF81A0001208DF81B00EC
:1042900002208DF818000120059002208DF81900E9
:1042A00005A93548FEF77BF802208DF8180040205C
:1042B000059005A93148FEF772F800208DF81A0024
:1042C00001208DF81B008DF81800000205900220D7
:1042D0008DF8190005A92A48FEF761F80020FEF7BD
:1042E0002FFA4FF4E13001900020ADF80800ADF84E
:1042F0000A00ADF80C00ADF810000820ADF80E0073
:1043000001A92048FFF706FF01211E48FFF799FE8B
:1043100034208DF8000000208DF8010002208DF877
:10432000020001208DF803006846FEF723FC4FF4DD
:10433000E13001900420ADF80E0001A91248FFF70A
:10434000E9FE26208DF8000000208DF801008DF890
:10435000020001208DF803006846FEF70BFC0122E5
:1043600040F225510848FFF7AFFE01210648FFF74C
:1043700068FE07B000BD000000000240000C0240D3
:1043800000200240004C00400044004010B50446AC
:1043900094F82810374A52F8210040F22771FFF7AD
:1043A00069FE18B3E068401CE060D4E9021088425E
:1043B00009D2E1682068405C94F828102D4A52F830
:1043C0002110888009E094F828102A4A52F8210028
:1043D000002240F22771FFF777FE94F82810254A53
:1043E00052F8210040F22771FFF71CFE94F82810C4
:1043F000204A52F8210040F22551FFF73BFE30B32E
:1044000000F0E8F9606294F828001A4951F8200099
:1044100080881949087094F82810164A52F821002B
:1044200040F22551FFF7FEFDD4E90610884207D27D
:1044300011480178E269501CE0616069815406E02E
:104440000E49206A884202D2206A401C206294F8F9
:104450002810084A52F821000821FFF7FEFD38B164
:1044600094F82800034951F8200080880449087016
:1044700010BD0000100200200C020020F0FFFF7FA2
:104480000D0200200EB54FF4C060FEF7AFFB012116
:104490008803FEF787FD04210120FEF719FF102095
:1044A000019000208DF808000C208DF809000120F3
:1044B0008DF80A0001A8FDF781FE0A208DF80000A2
:1044C00000208DF8010007208DF8020001208DF8F2
:1044D00003006846FEF74EFB0EBD10B500F008F86D
:1044E0005321092000F02EF8FFF7CCFF10BD00008B
:1044F0001CB501210320FEF725FD4FF4004000907C
:1045000001208DF8040000208DF8060001208DF8B0
:10451000070003208DF8050069460848FDF73FFFB6
:104520001020009000208DF8040001208DF8070075
:1045300069460348FDF733FF1CBD00000000024040
:10454000000402407FB505460C4601211020FEF70D
:1045500009FD0295ADF804400020ADF8060001A960
:104560000D48FFF763F936208DF8000000208DF824
:10457000010008208DF8020001208DF80300684634
:10458000FEF7F8FA012211460348FFF746F9002129
:104590000148FFF725F97FBD0010004070B50446C3
:1045A0000D462946204600F001F870BDF8B50446D6
:1045B0000D46032704F03F04002714E02046FEF7D1
:1045C0000BFF42F210716846FEF7CCFD064646B975
:1045D0009DF80000844203D12846FEF7FDFE04E06A
:1045E0000226781CC7B2032FE8DB00BF3046F8BDB7
:1045F00002E008C8121F08C1002AFAD170477047AC
:10460000002001E001C1121F002AFBD17047000009
:1046100010B5552016490870032048700120887095
:104620000220C8700020087148718978104AD27839
:1046300011440F4A127911440D4A52798818C11752
:1046400000EB11610912A0EB0121094A9171BB2015
:104650001146C871012000F071F808210448FEF7E6
:10466000AFFE642000F06AF8FA2000F067F810BD91
:104670006702002010B555202049087003204870BB
:1046800001208870C87000200871487189781B4A21
:10469000D2781144194A12791144184A527988186B
:1046A000C11700EB11610912A0EB0121134A9171AE
:1046B000BB201146C871012000F040F808210F48C6
:1046C000FEF77EFE322000F039F808210B48FEF795
:1046D00077FE322000F032F808210848FEF770FE1D
:1046E000322000F02BF800200449087048708870D0
:1046F000C870087148718871C87110BD67020020C8
:1047000010B504466FF00400FEF754FFE11704EB08
:104710005171C1F3C701074A11701046007800EBD0
:104720004001C1EBC0104FF6FF7101EAC000024921
:10473000088010BD04040020060400200146114A30
:1047400012884A434FF0E0235A6100229A611A46C8
:10475000126942F001021A6100BF4FF0E0221069B5
:1047600000F001021AB100F48032002AF5D04FF0B7
:10477000E022126922F001024FF0E0231A610022C8
:104780009A617047060400200146114A12784A4394
:104790004FF0E0235A6100229A611A46126942F0F2
:1047A00001021A6100BF4FF0E022106900F001021F
:1047B0001AB100F48032002AF5D04FF0E0221269DD
:1047C00022F001024FF0E0231A6100229A61704743
:1047D000040400200148006870470000080400201D
:1047E00004490968884203D902490968401A00E06F
:1047F000002070470804002000BF00BF00BFFDF785
:10480000B1FFFFF7E7FF323037490860FFF7E2FFFB
:10481000C83036490860FFF7DDFFC830344908600A
:10482000FFF7D8FFC8303349086055203249087077
:10483000AA20487055203149087002204870002194
:104840000846FEF787FD4DE0FEF752F8FCF712FF31
:10485000FDF714FA24480068FFF7C2FF60B9FFF7BC
:10486000B9FF3230204908602548006808B90120A6
:1048700000E00020224908601C480068FFF7B0FFF4
:1048800030B9FFF7A7FFC83018490860FEF75AFA99
:1048900018480068FFF7A4FF20BBFFF79BFFC83054
:1048A00014490860FEF712FC60B9FEF74EFC14488C
:1048B0002838006808B9012000E000201049283994
:1048C00008600FE000200E49283908600D48D0F834
:1048D000B80208B9012000E000200949091F08605A
:1048E000FEF7FAFBB0E70000C4010020C801002079
:1048F000CC010020D00100204407002076070020D2
:10490000BC824342008043427FB505460C460121EC
:104910000804FEF747FB0295ADF804400020ADF80F
:104920000600ADF80C008DF80E0001A90F48FEF747
:104930007DFF012211460D48FEF76FFF01210B4854
:10494000FEF748FF18208DF8000000208DF80100C8
:1049500005208DF8020001208DF803006846FEF75F
:1049600009F901210148FEF73BFF7FBD00400140EE
:1049700010B50C480078012812D1FEF74DFC0A4909
:10498000098888420CDA0020064908701E20074971
:10499000087000210846FEF7DDFC0020024908806F
:1049A00010BD0000460400205C0400204A040020E2
:1049B00010B50C480078012812D1FEF72DFC0A49E9
:1049C000098888420CDB002006490870142007493A
:1049D000087000210846FEF7BDFC0020024908804F
:1049E00010BD0000470400205C0400204A040020A1
:1049F00010B500242348007801281FD10820FDF7B6
:104A0000A1FD044604F0100080B91F480068322858
:104A100037D900201B4908701B49086002201B4938
:104A2000087000210846FEF795FC2AE0FF2C28D1EB
:104A300015480068401C1449086022E014480078BA
:104A400001281ED10820FDF77DFD044604F0080072
:104A500080B90D480068322813D900200C4908702D
:104A60000949086002200949087000210846FEF73C
:104A700071FC06E0FF2C04D103480068401C024989
:104A8000086010BD40040020640400204A04002097
:104A90004104002010B57E2008498870CC20C870E1
:104AA0000020087148718871C87108724872887254
:104AB000C8720C210148FEF777FC10BD44070020A6
:104AC00001000000020000000400000008000000D7
:104AD00010000000200000004000000080000000E6
:104AE00000010000000200000004000000080000B7
:104AF00000100000002000000040000000800000C6
:104B00000000010000000200000004000000080096
:104B100000001000000020000000400000008000A5
:104B20000000000100000002000000040000000876
:104B30000000001000000020000000400000008085
:104B4000FEFFFFFFFDFFFFFFFBFFFFFFF7FFFFFF84
:104B5000EFFFFFFFDFFFFFFFBFFFFFFF7FFFFFFF55
:104B6000FFFEFFFFFFFDFFFFFFFBFFFFFFF7FFFF64
:104B7000FFEFFFFFFFDFFFFFFFBFFFFFFF7FFFFF35
:104B8000FFFFFEFFFFFFFEFFFFFFFBFFFFFFF7FF43
:104B9000FFFFEFFFFFFFDFFFFFFFBFFFFFFF7FFF15
:104BA000FFFFFFFEFFFFFFFDFFFFFFFBFFFFFFF724
:104BB000FFFFFFEFFFFFFFDFFFFFFFBFFFFFFF7FF5
:104BC0000008040C020A060E0109050D030B070F6D
:104BD000F04B00080000002034060000F20400083A
:104BE000804D000834060020BC0900000046000883
:104BF000B200012010550402A1B2C318BB55040332
:104C0000010000040811161203101009040002002C
:104C100006BB550E17130001083302011830040EAD
:104C2000020228130E0229500505BB550F20520F12
:104C300020520F20520F20521320521320521320C3
:104C40005213205214205214205214205214601374
:104C50000B10982211081118221208113850051350
:104C6000BB55081852081852081852123052123008
:104C7000421230101000FF0CF300FF18E700FF5E37
:104C8000A1550A01CC201D02BB807F05FA807F1B45
:104C9000E400FF45BA03051445DE92673478A2FDAF
:104CA00027FF129432FFBA4355032C110811F80064
:104CB000101B03BBFF204E343030FF1059364133F8
:104CC000000130084131423243330A0C4007121EC2
:104CD0003CD2131864215513022121200621BB5513
:104CE00002121D110812637100067563BBFF1100EB
:104CF00001100A10014000440040004804124C0416
:104D000012500C0112D5901230313233343536370F
:104D10003839414243444546FF01000E435246495B
:104D2000445F414444523A30310A961AFD7A620196
:104D30000D12FA010AFFA1B00954B02005010203C7
:104D4000040408051906070809260215010C09457F
:104D500085100AC003E0078002E007A0041007E006
:104D600000E0070001081104B9810EFF00C004092A
:104D70004F104D6303475502220D128304000000BB
:040000050800018965
:00000001FF
